{
  "_format": "hh-sol-artifact-1",
  "contractName": "RezoningOracle",
  "sourceName": "src/RezoningOracle.sol",
  "abi": [
    {
      "inputs": [
        {
          "internalType": "address",
          "name": "_oracle",
          "type": "address"
        }
      ],
      "stateMutability": "nonpayable",
      "type": "constructor"
    },
    {
      "anonymous": false,
      "inputs": [
        {
          "indexed": true,
          "internalType": "uint256",
          "name": "batchId",
          "type": "uint256"
        },
        {
          "indexed": false,
          "internalType": "bytes32",
          "name": "merkleRoot",
          "type": "bytes32"
        },
        {
          "indexed": false,
          "internalType": "uint256",
          "name": "leafCount",
          "type": "uint256"
        },
        {
          "indexed": false,
          "internalType": "uint256",
          "name": "timestamp",
          "type": "uint256"
        },
        {
          "indexed": false,
          "internalType": "string",
          "name": "countyId",
          "type": "string"
        }
      ],
      "name": "BatchCommitted",
      "type": "event"
    },
    {
      "anonymous": false,
      "inputs": [
        {
          "indexed": true,
          "internalType": "address",
          "name": "previous",
          "type": "address"
        },
        {
          "indexed": true,
          "internalType": "address",
          "name": "next",
          "type": "address"
        }
      ],
      "name": "OracleUpdated",
      "type": "event"
    },
    {
      "anonymous": false,
      "inputs": [
        {
          "indexed": true,
          "internalType": "bytes32",
          "name": "pinHash",
          "type": "bytes32"
        },
        {
          "indexed": true,
          "internalType": "uint256",
          "name": "batchId",
          "type": "uint256"
        },
        {
          "indexed": false,
          "internalType": "string",
          "name": "petitionNumber",
          "type": "string"
        }
      ],
      "name": "ParcelRezoningRecorded",
      "type": "event"
    },
    {
      "inputs": [],
      "name": "batchCount",
      "outputs": [
        {
          "internalType": "uint256",
          "name": "",
          "type": "uint256"
        }
      ],
      "stateMutability": "view",
      "type": "function"
    },
    {
      "inputs": [
        {
          "internalType": "uint256",
          "name": "",
          "type": "uint256"
        }
      ],
      "name": "batches",
      "outputs": [
        {
          "internalType": "bytes32",
          "name": "merkleRoot",
          "type": "bytes32"
        },
        {
          "internalType": "uint256",
          "name": "leafCount",
          "type": "uint256"
        },
        {
          "internalType": "uint256",
          "name": "timestamp",
          "type": "uint256"
        },
        {
          "internalType": "uint256",
          "name": "fromEventSeq",
          "type": "uint256"
        },
        {
          "internalType": "uint256",
          "name": "toEventSeq",
          "type": "uint256"
        },
        {
          "internalType": "string",
          "name": "countyId",
          "type": "string"
        }
      ],
      "stateMutability": "view",
      "type": "function"
    },
    {
      "inputs": [
        {
          "internalType": "bytes32",
          "name": "merkleRoot",
          "type": "bytes32"
        },
        {
          "internalType": "uint256",
          "name": "leafCount",
          "type": "uint256"
        },
        {
          "internalType": "uint256",
          "name": "fromEventSeq",
          "type": "uint256"
        },
        {
          "internalType": "uint256",
          "name": "toEventSeq",
          "type": "uint256"
        },
        {
          "internalType": "string",
          "name": "countyId",
          "type": "string"
        },
        {
          "internalType": "bytes32[]",
          "name": "pinHashes",
          "type": "bytes32[]"
        },
        {
          "internalType": "string[]",
          "name": "petitionNumbers",
          "type": "string[]"
        }
      ],
      "name": "commitBatch",
      "outputs": [
        {
          "internalType": "uint256",
          "name": "batchId",
          "type": "uint256"
        }
      ],
      "stateMutability": "nonpayable",
      "type": "function"
    },
    {
      "inputs": [
        {
          "internalType": "uint256",
          "name": "batchId",
          "type": "uint256"
        }
      ],
      "name": "getBatch",
      "outputs": [
        {
          "internalType": "bytes32",
          "name": "merkleRoot",
          "type": "bytes32"
        },
        {
          "internalType": "uint256",
          "name": "leafCount",
          "type": "uint256"
        },
        {
          "internalType": "uint256",
          "name": "timestamp",
          "type": "uint256"
        },
        {
          "internalType": "uint256",
          "name": "fromEventSeq",
          "type": "uint256"
        },
        {
          "internalType": "uint256",
          "name": "toEventSeq",
          "type": "uint256"
        },
        {
          "internalType": "string",
          "name": "countyId",
          "type": "string"
        }
      ],
      "stateMutability": "view",
      "type": "function"
    },
    {
      "inputs": [
        {
          "internalType": "string",
          "name": "pin",
          "type": "string"
        }
      ],
      "name": "getPinHistory",
      "outputs": [
        {
          "internalType": "uint256[]",
          "name": "",
          "type": "uint256[]"
        }
      ],
      "stateMutability": "view",
      "type": "function"
    },
    {
      "inputs": [
        {
          "internalType": "bytes32",
          "name": "pinHash",
          "type": "bytes32"
        }
      ],
      "name": "getPinHistoryByHash",
      "outputs": [
        {
          "internalType": "uint256[]",
          "name": "",
          "type": "uint256[]"
        }
      ],
      "stateMutability": "view",
      "type": "function"
    },
    {
      "inputs": [],
      "name": "oracle",
      "outputs": [
        {
          "internalType": "address",
          "name": "",
          "type": "address"
        }
      ],
      "stateMutability": "view",
      "type": "function"
    },
    {
      "inputs": [],
      "name": "owner",
      "outputs": [
        {
          "internalType": "address",
          "name": "",
          "type": "address"
        }
      ],
      "stateMutability": "view",
      "type": "function"
    },
    {
      "inputs": [
        {
          "internalType": "address",
          "name": "_oracle",
          "type": "address"
        }
      ],
      "name": "setOracle",
      "outputs": [],
      "stateMutability": "nonpayable",
      "type": "function"
    },
    {
      "inputs": [
        {
          "internalType": "address",
          "name": "newOwner",
          "type": "address"
        }
      ],
      "name": "transferOwnership",
      "outputs": [],
      "stateMutability": "nonpayable",
      "type": "function"
    },
    {
      "inputs": [
        {
          "internalType": "bytes32",
          "name": "leaf",
          "type": "bytes32"
        },
        {
          "internalType": "bytes32[]",
          "name": "proof",
          "type": "bytes32[]"
        },
        {
          "internalType": "uint256",
          "name": "batchId",
          "type": "uint256"
        }
      ],
      "name": "verify",
      "outputs": [
        {
          "internalType": "bool",
          "name": "",
          "type": "bool"
        }
      ],
      "stateMutability": "view",
      "type": "function"
    }
  ],
  "bytecode": "0x608060405234801561001057600080fd5b5060405161108838038061108883398101604081905261002f91610062565b60038054336001600160a01b031991821617909155600480549091166001600160a01b0392909216919091179055610092565b60006020828403121561007457600080fd5b81516001600160a01b038116811461008b57600080fd5b9392505050565b610fe7806100a16000396000f3fe608060405234801561001057600080fd5b50600436106100a95760003560e01c80637adbf973116100715780637adbf973146101455780637dc0d1d01461015a5780638da5cb5b14610185578063a025973214610198578063b32c4d8d146101ab578063f2fde38b146101be57600080fd5b806306f13056146100ae57806333396590146100ca5780635ac44282146100ea5780635d127c061461010f578063614cac9e14610122575b600080fd5b6100b760015481565b6040519081526020015b60405180910390f35b6100dd6100d8366004610a8c565b6101d1565b6040516100c19190610ace565b6100fd6100f8366004610b12565b610265565b6040516100c196959493929190610b2b565b6100dd61011d366004610b12565b610344565b610135610130366004610be2565b6103a6565b60405190151581526020016100c1565b610158610153366004610c35565b61045e565b005b60045461016d906001600160a01b031681565b6040516001600160a01b0390911681526020016100c1565b60035461016d906001600160a01b031681565b6100b76101a6366004610c65565b6104e4565b6100fd6101b9366004610b12565b61083a565b6101586101cc366004610c35565b6108fe565b60606002600084846040516020016101ea929190610d28565b60405160208183030381529060405280519060200120815260200190815260200160002080548060200260200160405190810160405280929190818152602001828054801561025857602002820191906000526020600020905b815481526020019060010190808311610244575b5050505050905092915050565b600080600080600060606000806000898152602001908152602001600020905080600001548160010154826002015483600301548460040154856005018080546102ae90610d38565b80601f01602080910402602001604051908101604052809291908181526020018280546102da90610d38565b80156103275780601f106102fc57610100808354040283529160200191610327565b820191906000526020600020905b81548152906001019060200180831161030a57829003601f168201915b505050505090509650965096509650965096505091939550919395565b60008181526002602090815260409182902080548351818402810184019094528084526060939283018282801561039a57602002820191906000526020600020905b815481526020019060010190808311610386575b50505050509050919050565b6000600154821061040a5760405162461bcd60e51b8152602060048201526024808201527f52657a6f6e696e674f7261636c653a20626174636820646f6573206e6f7420656044820152631e1a5cdd60e21b60648201526084015b60405180910390fd5b61045584848080602002602001604051908101604052809392919081815260200183836020028082843760009201829052508781526020819052604090205492508991506109a09050565b95945050505050565b6003546001600160a01b031633146104885760405162461bcd60e51b815260040161040190610d72565b6004546040516001600160a01b038084169216907f078c3b417dadf69374a59793b829c52001247130433427049317bde56607b1b790600090a3600480546001600160a01b0319166001600160a01b0392909216919091179055565b6004546000906001600160a01b031633148061050a57506003546001600160a01b031633145b6105675760405162461bcd60e51b815260206004820152602860248201527f52657a6f6e696e674f7261636c653a2063616c6c6572206973206e6f7420746860448201526765206f7261636c6560c01b6064820152608401610401565b60008a116105b75760405162461bcd60e51b815260206004820152601b60248201527f52657a6f6e696e674f7261636c653a20656d70747920626174636800000000006044820152606401610401565b8a6106045760405162461bcd60e51b815260206004820181905260248201527f52657a6f6e696e674f7261636c653a207a65726f206d65726b6c6520726f6f746044820152606401610401565b8382146106615760405162461bcd60e51b815260206004820152602560248201527f52657a6f6e696e674f7261636c653a206172726179206c656e677468206d69736044820152640dac2e8c6d60db1b6064820152608401610401565b50600180548082019091556040805160c0810182528c815260208082018d90524282840152606082018c9052608082018b90528251601f8a01829004820281018201909352888352909160a08301918a908a90819084018382808284376000920182905250939094525050838152602081815260409182902084518155908401516001820155908301516002820155606083015160038201556080830151600482015560a0830151909150600582019061071b9082610e1e565b5090505060005b848110156107eb576002600087878481811061074057610740610ede565b602090810292909201358352508181019290925260400160009081208054600181018255908252919020018290558186868381811061078157610781610ede565b905060200201357fac4d3a350f75547ad24395622037ff457c707be8392db599f37f2261496e9cb08686858181106107bb576107bb610ede565b90506020028101906107cd9190610ef4565b6040516107db929190610f64565b60405180910390a3600101610722565b50807f570f109f47064fa96f9a4f95ddc73d2e6c9c9b9580c89d0e39e36856b10b059a8c8c428b8b604051610824959493929190610f80565b60405180910390a29a9950505050505050505050565b600060205280600052604060002060009150905080600001549080600101549080600201549080600301549080600401549080600501805461087b90610d38565b80601f01602080910402602001604051908101604052809291908181526020018280546108a790610d38565b80156108f45780601f106108c9576101008083540402835291602001916108f4565b820191906000526020600020905b8154815290600101906020018083116108d757829003601f168201915b5050505050905086565b6003546001600160a01b031633146109285760405162461bcd60e51b815260040161040190610d72565b6001600160a01b03811661097e5760405162461bcd60e51b815260206004820152601c60248201527f52657a6f6e696e674f7261636c653a207a65726f2061646472657373000000006044820152606401610401565b600380546001600160a01b0319166001600160a01b0392909216919091179055565b600081815b8551811015610a385760008682815181106109c2576109c2610ede565b60200260200101519050808310610a0257604080516020810183905290810184905260600160405160208183030381529060405280519060200120610a2d565b6040805160208101859052908101829052606001604051602081830303815290604052805190602001205b9250506001016109a5565b509092149392505050565b60008083601f840112610a5557600080fd5b50813567ffffffffffffffff811115610a6d57600080fd5b602083019150836020828501011115610a8557600080fd5b9250929050565b60008060208385031215610a9f57600080fd5b823567ffffffffffffffff811115610ab657600080fd5b610ac285828601610a43565b90969095509350505050565b6020808252825182820181905260009190848201906040850190845b81811015610b0657835183529284019291840191600101610aea565b50909695505050505050565b600060208284031215610b2457600080fd5b5035919050565b86815260006020878184015286604084015285606084015284608084015260c060a084015283518060c085015260005b81811015610b775785810183015185820160e001528201610b5b565b50600060e0828601015260e0601f19601f83011685010192505050979650505050505050565b60008083601f840112610baf57600080fd5b50813567ffffffffffffffff811115610bc757600080fd5b6020830191508360208260051b8501011115610a8557600080fd5b60008060008060608587031215610bf857600080fd5b84359350602085013567ffffffffffffffff811115610c1657600080fd5b610c2287828801610b9d565b9598909750949560400135949350505050565b600060208284031215610c4757600080fd5b81356001600160a01b0381168114610c5e57600080fd5b9392505050565b60008060008060008060008060008060e08b8d031215610c8457600080fd5b8a35995060208b0135985060408b0135975060608b0135965060808b013567ffffffffffffffff80821115610cb857600080fd5b610cc48e838f01610a43565b909850965060a08d0135915080821115610cdd57600080fd5b610ce98e838f01610b9d565b909650945060c08d0135915080821115610d0257600080fd5b50610d0f8d828e01610b9d565b915080935050809150509295989b9194979a5092959850565b8183823760009101908152919050565b600181811c90821680610d4c57607f821691505b602082108103610d6c57634e487b7160e01b600052602260045260246000fd5b50919050565b60208082526027908201527f52657a6f6e696e674f7261636c653a2063616c6c6572206973206e6f74207468604082015266329037bbb732b960c91b606082015260800190565b634e487b7160e01b600052604160045260246000fd5b601f821115610e1957600081815260208120601f850160051c81016020861015610df65750805b601f850160051c820191505b81811015610e1557828155600101610e02565b5050505b505050565b815167ffffffffffffffff811115610e3857610e38610db9565b610e4c81610e468454610d38565b84610dcf565b602080601f831160018114610e815760008415610e695750858301515b600019600386901b1c1916600185901b178555610e15565b600085815260208120601f198616915b82811015610eb057888601518255948401946001909101908401610e91565b5085821015610ece5787850151600019600388901b60f8161c191681555b5050505050600190811b01905550565b634e487b7160e01b600052603260045260246000fd5b6000808335601e19843603018112610f0b57600080fd5b83018035915067ffffffffffffffff821115610f2657600080fd5b602001915036819003821315610a8557600080fd5b81835281816020850137506000828201602090810191909152601f909101601f19169091010190565b602081526000610f78602083018486610f3b565b949350505050565b858152846020820152836040820152608060608201526000610fa6608083018486610f3b565b97965050505050505056fea264697066735822122095e514fa155d6433fcc2148d19437a07c14465f62e51c29780561c9e61ac60d264736f6c63430008140033",
  "linkReferences": {},
  "deployedLinkReferences": {}
}